:100000000C9461000C947E000C947E000C947E0095
:100010000C947E000C947E000C947E000C947E0068
:100020000C947E000C947E000C947E000C947E0058
:100030000C947E000C947E000C947E000C947E0048
:100040000C943C020C947E000C947E000C947E0078
:100050000C947E000C947E000C947E000C947E0028
:100060000C947E000C947E0000000000230026000B
:10007000290000000000240027002A0000000000E2
:10008000250028002B0004040404040404040202D4
:100090000202020203030303030301020408102007
:1000A0004080010204081020010204081020000012
:1000B0000008000201000003040700000000000027
:1000C000000011241FBECFEFD8E0DEBFCDBF11E08E
:1000D000A0E0B1E0EEE2FCE002C005900D92A43297
:1000E000B107D9F721E0A4E2B1E001C01D92A3332A
:1000F000B207E1F70E9486020C9415060C940000EA
:10010000833081F028F4813099F08230A9F008958D
:100110008730A9F08830C9F08430B1F48091800034
:100120008F7D03C0809180008F7780938000089539
:1001300084B58F7784BD089584B58F7DFBCF809182
:10014000B0008F778093B00008958091B0008F7DCC
:10015000F9CF1F93CF93DF93282F30E0F901E255B9
:10016000FF4F8491F901E656FF4FD491F901EA5708
:10017000FF4FC491CC23A9F0162F81110E9480005B
:10018000EC2FF0E0EE0FFF1FE458FF4FA591B49164
:100190008FB7F894EC91111108C0D095DE23DC9351
:1001A0008FBFDF91CF911F910895DE2BF8CFCF93B2
:1001B000DF9390E0FC01E656FF4F24918A579F4F52
:1001C000FC0184918823C9F090E0880F991FFC01FD
:1001D000EE58FF4FA591B491FC01E458FF4FC59133
:1001E000D49161110DC09FB7F8948C912095822312
:1001F0008C938881282328839FBFDF91CF91089516
:10020000623051F49FB7F8943C91822F80958323FC
:100210008C93E8812E2BEFCF8FB7F894EC912E2B97
:100220002C938FBFEACF3FB7F89480912B01909128
:100230002C01A0912D01B0912E0126B5A89B05C0DF
:100240002F3F19F00196A11DB11D3FBFBA2FA92F55
:10025000982F8827BC01CD01620F711D811D911D52
:1002600042E0660F771F881F991F4A95D1F70895BE
:100270008F929F92AF92BF92CF92DF92EF92FF92B6
:100280000E9413014B015C0180EDC82E87E0D82E3F
:10029000E12CF12C0E941301681979098A099B0944
:1002A000683E734081059105A8F321E0C21AD10888
:1002B000E108F10888EE880E83E0981EA11CB11CAD
:1002C000C114D104E104F10429F7FF90EF90DF900D
:1002D000CF90BF90AF909F908F900895CF93DF9372
:1002E000DC0126E0629FA00DB11D112490965C9365
:1002F0004E935F9721E091962C939197FC01E359DF
:10030000FF4F0190F081E02DEC01C459DF4F2881AF
:10031000222341F0309719F0DC01662329F0DF91A8
:10032000CF9108953097D9F35C968C91DF91CF915E
:100330000994CF92DF92EF92FF920F931F93CF9386
:10034000DF93FC0126E0629FE00DF11D112411A254
:10035000278D30A12130310559F188F02230310547
:1003600009F452C02330310509F453C0DF91CF9115
:100370001F910F91FF90EF90DF90CF90089544234D
:10038000A9F3EC0141E050E00E946E012FB7F89410
:100390008091270190912801A0912901B0912A0113
:1003A0002FBFC85ADF4F88839983AA83BB83DECFD0
:1003B0002FB7F894C0902701D0902801E090290130
:1003C000F0902A012FBFFC01E85AFF4F00811181F4
:1003D00022813381C01AD10AE20AF30A729600819F
:1003E000118130E020E00C151D052E053F0560F45D
:1003F00042E050E0DF91CF911F910F91FF90EF907D
:10040000DF90CF900C946E014111B0CF43E050E0EB
:10041000F1CF50E040E0EECFCF93DF9370E0FB01EF
:10042000E255FF4F8491FB01E656FF4FD4916A5786
:100430007F4FFB01C491CC23A1F081110E94800069
:10044000EC2FF0E0EE0FFF1FE859FF4FA591B4919C
:10045000EC91ED2381E090E009F480E0DF91CF9111
:10046000089580E090E0FACF862F642F0C94A900C5
:10047000862F642F0C94D7001F920F920FB60F9205
:1004800011242F933F938F939F93AF93BF938091AA
:10049000270190912801A0912901B0912A01309162
:1004A000260123E0230F2D3758F50196A11DB11D1C
:1004B000209326018093270190932801A09329017E
:1004C000B0932A0180912B0190912C01A0912D01D4
:1004D000B0912E010196A11DB11D80932B01909327
:1004E0002C01A0932D01B0932E01BF91AF919F914C
:1004F0008F913F912F910F900FBE0F901F901895E5
:1005000026E8230F0296A11DB11DD2CFCF93DF9312
:10051000CDB7DEB72C970FB6F894DEBF0FBECDBFB8
:10052000789484B5826084BD84B5816084BD85B5CE
:10053000826085BD85B5816085BD80916E008160DA
:1005400080936E0010928100809181008260809380
:100550008100809181008160809381008091800082
:100560008160809380008091B10084608093B100AD
:100570008091B00081608093B00080917A008460A7
:1005800080937A0080917A00826080937A008091D3
:100590007A00816080937A0080917A0080688093ED
:1005A0007A001092C10061E08AE00E94D70061E009
:1005B0008BE00E94D7008FE690E00E94F004FC01DF
:1005C000128216821582178286E191E091838083E0
:1005D000DF015C96CD01CC961C9214961C921E9263
:1005E000139715961C92159716968A179B07A1F7D5
:1005F000DF01AE59BF4F8FE191E011969C938E932E
:1006000012968CE191E011969C938E93129684E061
:100610008C93119683E08C93179780E091E011966C
:100620009C938E9318968AE090E011969C938E93FB
:10063000129684EF91E011969C938E9313961196E7
:100640001C921E9251971D921D921D921C921397FF
:1006500050961C92F0932501E0932401412C512CDB
:100660003201439420912401309125013C872B874E
:1006700024593F4F3C832B83E1E0D901EC938FB7A2
:10068000F8944091270150912801609129017091BF
:100690002A018FBF2B853C85245A3F4F3E832D83F3
:1006A000F90180819181A281B381481B590B6A0BAA
:1006B0007B0BEB85FC85E859FF4F80819181B0E091
:1006C000A0E084179507A607B70708F07CC1F12CB6
:1006D0002B853C852A593F4F3A8329830B851C85FE
:1006E0000E591F4FA981BA818C91F816A0F4F80118
:1006F000A081B181AF0DB11DEB85FC858081918119
:10070000FC012081318142E06C918B859C85F9014F
:100710000995F394E7CF312C2B853C8529593F4F20
:1007200038872F83CB84DC8434E6C30ED11C4B8501
:100730005C854E595F4F5A874987AF81B8858C9148
:10074000381608F087C0E32CF12CF601A081B181A6
:10075000CD018E0D9F1DAB85BC85ED91FC91019067
:10076000F081E02D41E0DC016C918B859C85099541
:10077000F601A081B181CD018E0D9F1DAB85BC8599
:10078000ED91FC910280F381E02D40E0DC016C9161
:100790008B859C850995D301C201032C04C0880F69
:1007A000991FAA1FBB1F0A94D2F74C015C01A094A9
:1007B000B094212CAB85BC85ED91FC91A981BA81C7
:1007C0008C91281628F5022D10E0A985BA858D9107
:1007D0009C91DC01A00FB11F0480F581E02D6C918C
:1007E0008B859C850995000F111FEB85FC85E00F1B
:1007F000F11F892B41F4808591858829992991875A
:1008000080872394D7CF808591858A219B21F7CF3C
:10081000D6018D919C91DC01AE0DBF1D0280F3814C
:10082000E02D41E06C918B859C850995F6018081D6
:100830009181E80EF91EAB85BC85ED91FC9101908C
:10084000F081E02D40E0D7016C918B859C85099566
:10085000339473CFEB84FC84C701CC968701F801F5
:10086000278D30A1232B31F4148E2FEF3FEF368FDD
:10087000258F11A20A5F1F4F0817190781F7912CC6
:10088000CB84DC8430E6C30ED11CA981BA818C9163
:10089000981608F05BC0812CA92CB12CB4E0AB0EEB
:1008A000B11CAA0CBB1CEB85FC85AE0EBF1EAF8134
:1008B000B8858C91881608F047C0F50140815181B8
:1008C000082C02C0569547950A94E2F7989EC001FD
:1008D0001124880D911DEB85FC8560E0258D368DFA
:1008E0008217930709F47AC06F5F36966A30B1F7C2
:1008F00040FF28C0EB85FC8570E060E0248D21116D
:100900001BC0D601ED91FC91E80FF91F2081B6E0E4
:10091000B69FF001B79FF00D11244B855C85E40F65
:10092000F51F248F968F858F10A2178E41E08B853F
:100930009C850E94990106C06F5F7F4F36966A3092
:100940007105E1F68394B3CF93949FCF80E0D701F4
:1009500091969C919111892FB6E0EB0EF11C0E152A
:100960001F05A9F79FB7F8944091270150912801DE
:100970006091290170912A019FBFED81FE81408322
:100980005183628373838823F1F0AB85BC85919694
:100990008C9191978823B9F05F968D919C91909757
:1009A000019789F45C968C91833281F461E08BE04D
:1009B0000E94A9000E94380160E08BE00E94A9001B
:1009C0000E94380103C0EB81FC81108220E030E0FE
:1009D000232B09F447CE0E94000044CE4170A7CFDC
:1009E0000F931F93CF93DF938230910510F482E031
:1009F00090E0E0913101F091320130E020E0B0E090
:100A0000A0E0309799F42115310509F44AC0281B5C
:100A1000390B24303105D8F58A819B816115710528
:100A200089F1FB0193838283FE0111C040815181D2
:100A30000281138148175907E0F04817590799F4C4
:100A4000109761F012960C93129713961C9332969E
:100A5000CF01DF91CF911F910F9108950093310144
:100A600010933201F4CF2115310551F0421753078D
:100A700038F0A901DB019A01BD01DF01F801C1CF06
:100A8000EF01F9CF9093320180933101CDCFFE0178
:100A9000E20FF31F81939193225031093983288308
:100AA000D7CF20912F0130913001232B41F4209199
:100AB0000E0130910F013093300120932F012091CE
:100AC0000C0130910D012115310541F42DB73EB7D0
:100AD0004091100150911101241B350BE0912F0121
:100AE000F0913001E217F307A0F42E1B3F0B2817FB
:100AF000390778F0AC014E5F5F4F2417350748F097
:100B00004E0F5F1F5093300140932F0181939193BB
:100B10009FCFF0E0E0E09CCFCF93DF930097E9F028
:100B2000FC01329713821282A0913101B0913201FF
:100B3000ED0130E020E01097A1F420813181820F97
:100B4000931F20912F01309130012817390709F0A8
:100B500061C0F0933001E0932F01DF91CF910895B0
:100B6000EA01CE17DF07E8F54A815B819E01411556
:100B70005105B1F7E901FB83EA8349915991C40F0B
:100B8000D51FEC17FD0761F4808191810296840FD7
:100B9000951FE90199838883828193819B838A834E
:100BA000F0E0E0E012968D919C9113970097B9F5D3
:100BB0002D913C911197CD010296820F931F2091A8
:100BC0002F01309130012817390739F6309751F548
:100BD0001092320110923101B0933001A0932F0195
:100BE000BCCFD383C28340815181840F951FC81726
:100BF000D90761F44E5F5F4F88819981480F591F73
:100C0000518340838A819B8193838283211531059F
:100C100009F0B0CFF0933201E09331019ECFFD0196
:0E0C2000DC01C0CF13821282D7CFF894FFCF31
:100C2E003132333435363738392A30230000330128
:100C3E00800000000000380234020C020607080291
:040C4E000304050096
:00000001FF
